:020000040800F2
:100000005804002045010008ED020008AD02000878
:10001000E90200088D0100085B09000800000000EB
:10002000000000000000000000000000790400084B
:100030009101000800000000610300086505000848
:100040005F0100085F0100085F0100085F01000810
:100050005F0100085F0100085F0100085F01000800
:100060005F0100085F0100085F0100085F010008F0
:100070005F0100085F0100085F0100085F010008E0
:100080005F0100085F0100085F0100085F010008D0
:100090005F0100085F0100085F0100085F010008C0
:1000A0005F0100085F0100085F0100085F010008B0
:1000B0005F0100085F0100085F0100085F010008A0
:1000C0005F0100085F0100085F0100085F01000890
:1000D0005F010008C90500085F0100085F01000812
:1000E0005F0100085F0100085F0100085F01000870
:1000F0005F0100085F0100085F0100085F01000860
:100100005F0100085F0100085F0100085F0100084F
:100110005F0100085F0100085F0100085F0100083F
:100120005F0100085F0100085F0100085F0100082F
:10013000DFF80CD000F018F8004800477D090008EF
:10014000580400200648804706480047FEE7FEE7BF
:10015000FEE7FEE7FEE7FEE7FEE7FEE7FEE7FEE777
:100160006905000831010008064C074D06E0E0680B
:1001700040F0010394E8070098471034AC42F6D3EE
:10018000FFF7DAFFC8090008E809000800BFFEE72A
:1001900070472DE9F041024600250026002000238B
:1001A0000024002791F803C00CF00F0591F803C05C
:1001B0000CF0100CBCF1000F03D091F802C04CEA17
:1001C000050591F800C0BCF1000F31D01468002083
:1001D0002BE04FF0010C0CFA00F3B1F800C00CEA70
:1001E00003069E4220D183004FF00F0C0CFA03F758
:1001F000BC4305FA03FC4CEA040491F803C0BCF1CB
:10020000280F06D14FF0010C0CFA00FCC2F814C004
:100210000AE091F803C0BCF1480F05D14FF0010C82
:100220000CFA00FCC2F810C0401C0828D1D314609E
:10023000B1F800C0BCF1FF0F34DD546800202EE09F
:1002400000F1080C4FF0010808FA0CF3B1F800C0F7
:100250000CEA03069E4221D183004FF00F0C0CFAEA
:1002600003F7BC4305FA03FC4CEA040491F803C00D
:10027000BCF1280F05D100F1080C08FA0CF8C2F8FF
:10028000148091F803C0BCF1480F07D100F1080CAD
:100290004FF0010808FA0CF8C2F81080401C08283A
:1002A000CED35460BDE8F0810161704700BFFEE726
:1002B00008B50121102000F065F84FF40050ADF8AA
:1002C000000010208DF8030003208DF8020069461D
:1002D0000448FFF75EFF4FF400510248FFF7E4FFC8
:1002E00008BD00000010014000BFFEE7704700009D
:1002F00070B5002100230F22C47804B3154C246884
:1003000004F4E064C4F5E064210AC1F10403CA40C6
:10031000447804FA03F184781440214309010E4C17
:100320000678A155047804F01F050124AC40057837
:100330006D11AD0005F1E025C5F8004109E0047834
:1003400004F01F050124AC40044D0678761145F8F1
:10035000264070BD0CED00E000E400E080E100E02C
:100360007047000029B1064AD2690243044BDA61A2
:1003700004E0034AD2698243014BDA61704700000E
:100380000010024029B1064A92690243044B9A6167
:1003900004E0034A92698243014B9A61704700006E
:1003A0000010024030B500210022002400232D4D12
:1003B0006D6805F00C0121B1042905D0082923D16D
:1003C00005E0294D056022E0274D05601FE0254D21
:1003D0006D6805F47012234D6D6805F480340225B4
:1003E00005EB92421CB9214D554305600BE01D4DB4
:1003F0006D6805F400351DB11C4D5543056002E0E4
:10040000194D5543056002E0174D056000BF00BF60
:10041000144D6D6805F0F0010909154D6B5C056818
:10042000DD4045600F4D6D6805F4E061090A104D2F
:100430006B5C4568DD4085600A4D6D6805F4605170
:10044000C90A0B4D6B5C4568DD40C560054D6D68A4
:1004500005F44041890B074D6B5CC568B5FBF3F5AE
:10046000056130BD0010024000127A0000093D0015
:100470000600002016000020704710B500F002F8BA
:1004800010BD00000CB500200190009033480068BA
:1004900040F480303149086000BF3048006800F403
:1004A000003000900198401C0190009818B9019804
:1004B000B0F5A06FF1D12948006800F4003010B108
:1004C0000120009001E0002000900098012843D115
:1004D0002348006840F01000214908600846006881
:1004E00020F0030008600846006840F00200086041
:1004F0001A484068194948600846406848600846FC
:10050000406840F4806048600846406820F47C10F1
:1005100048600846406840F4E810486008460068B3
:1005200040F08070086000BF0C48006800F0007068
:100530000028F9D00948406820F0030007494860C6
:100540000846406840F00200486000BF0348406829
:1005500000F00C000828F9D10CBD0000001002408A
:10056000002002407047000010B51348006840F0BA
:1005700001001149086008464068104908400E49CA
:100580004860084600680E4908400B490860084664
:10059000006820F4802008600846406820F4FE00CF
:1005A00048604FF41F008860FFF767FF4FF000605E
:1005B0000449086010BD0000001002400000FFF870
:1005C000FFFFF6FE08ED00E010B540F2255111489E
:1005D00000F0E7F888B10F4800F09EF90E490F4A85
:1005E000126888540D480068401C0C490860084691
:1005F00000683C2801DB0020086040F224410548E7
:1006000000F0CFF828B1034800F086F90120044932
:10061000087010BD003801401C00002000000020C0
:100620000400002000B585B001210420FFF7AAFED8
:1006300001214804FFF796FE0420ADF810001820B1
:100640008DF8130003208DF8120004A91448FFF759
:10065000A0FD0820ADF8100004208DF81300032041
:100660008DF8120004A90E48FFF793FD4FF4E13016
:1006700000900020ADF80400ADF80600ADF80800C9
:10068000ADF80C000C20ADF80A006946054800F0F2
:10069000D7F80121034800F010F805B000BD0000B4
:1006A00000080140004400400246002002E0002310
:1006B0001354401C8842FADB704721B1828942F40E
:1006C0000052828104E082894DF6FF731A408281D4
:1006D0007047000000B587B0012144F20400FFF725
:1006E00051FE4FF40070ADF8180018208DF81B0073
:1006F00003208DF81A0006A92148FFF74AFD4FF4A0
:100700008060ADF8180004208DF81B0003208DF8E0
:100710001A0006A91A48FFF73CFD4FF4E130029099
:100720000020ADF80C00ADF80E00ADF81000ADF8EB
:1007300014000C20ADF8120002A9124800F080F855
:1007400025208DF8040000208DF805008DF80600A6
:1007500001208DF8070001A8FFF7CAFD012240F231
:100760002551084800F047F8012240F2244105488D
:1007700000F041F801210348FFF79FFF07B000BDDB
:10078000000801400038014002460020B1F5007F1A
:1007900000D100BF13880B400BB1012000E0002006
:1007A000704770B50246002400230025002040F663
:1007B0006A16B14200D100BFC1F3421501F01F0318
:1007C000012606FA03F3012D02D19689334006E093
:1007D000022D02D1168A334001E0968A33400C1272
:1007E000012606FA04F41688344013B10CB1012036
:1007F00000E0002070BDF0B503460024002600256F
:10080000002040F66A17B94200D100BF1846C1F374
:10081000421401F01F06012707FA06F5012C01D149
:100820000C3004E0022C01D1103000E014301AB179
:1008300007682F43076002E00768AF430760F0BD19
:100840002DE9F04786B005460E460024A24600BFBB
:10085000A1460027B08900B100BF2F462C8A4CF674
:10086000FF700440F08804432C82AC894EF6F310EC
:100870000440B08831890843718908430443AC813E
:10088000AC8A4FF6FF400440B0890443AC8201A813
:10089000FFF788FD1F48874202D1DDF810A001E074
:1008A000DDF80CA0A88900F4004040B10AEBCA00B2
:1008B00000EB0A1031684900B0FBF1F807E00AEBE1
:1008C000CA0000EB0A1031688900B0FBF1F864201F
:1008D000B8FBF0F004012009642101FB1089A8890C
:1008E00000F4004040B1322000EBC900B0FBF1F051
:1008F00000F00700044308E0322000EB09106421F7
:10090000B0FBF1F000F00F0004432C8106B0BDE80D
:10091000F08700000038014001468888C0F30800D5
:100920007047C1F30802828070472DE9F041074605
:100930000D46164600240CE0295D3846FFF7F1FF0E
:1009400000BF80213846FFF71FFF0028F9D0601C48
:1009500084B2B442F0DBBDE8F08100BFFEE702E004
:1009600008C8121F08C1002AFAD17047704700203A
:1009700001E001C1121F002AFBD17047FFF7AAFE58
:10098000FFF750FEFFF794FC14E00B48007888B1A5
:100990000A48006882B20A490A48FFF7C6FF0748BA
:1009A000006881B20648FFF77FFE00200349086017
:1009B00001490870E9E70000040000200000002061
:1009C0001C00002000440040E8090008000000204E
:1009D0001C0000005E090008040A00081C0000203A
:1009E0003C0400006E090008000000000000000048
:1009F00000000102030401020304060708090204BF
:040A000006080000E4
:0400000508000131BD
:00000001FF
